:020000020000FC
:10000000509A519A529A539A549A559A569A579A84
:10001000249A209A219A259A2D9A0F9301E00BB9E0
:100020002898299A2F938F939F9321E08EE39CE940
:100030000197F1F72A95D1F700009F918F912F91A9
:10004000299800E00BB90F910F9308E30BB928989A
:10005000299A2F938F939F9321E08EE39CE9019738
:10006000F1F72A95D1F700009F918F912F91299850
:1000700000E00BB90F910F930CE00BB92898299A67
:100080002F938F939F9321E08EE39CE90197F1F7E3
:100090002A95D1F700009F918F912F91299800E028
:1000A0000BB90F9107EC00937A0000E600937C00F7
:1000B000409A00917A00006400937A0000917A00DF
:1000C00006FDFCCF0091780010917900012FD12F0F
:1000D0001AE0E0E3F3E02F93FF1829E0001F2A95D0
:1000E00009F408C0FF1CF11A18F4F10E8894F6CF39
:1000F0000894F4CF2F91FE0EFF92FA9561F70F93BB
:100100000DE40BB9289A299A2F938F939F9321E09E
:100110008EE39CE90197F1F72A95D1F700009F91B2
:100120008F912F91299800E00BB90F910F930FE455
:100130000BB9289A299A2F938F939F9321E08EE3EE
:100140009CE90197F1F72A95D1F700009F918F91D3
:100150002F91299800E00BB90F910F9309E40BB987
:10016000289A299A2F938F939F9321E08EE39CE9FD
:100170000197F1F72A95D1F700009F918F912F9168
:10018000299800E00BB90F910F9303E50BB9289A5A
:10019000299A2F938F939F9321E08EE39CE90197F7
:1001A000F1F72A95D1F700009F918F912F9129980F
:1001B00000E00BB90F910F9304E50BB9289A299A27
:1001C0002F938F939F9321E08EE39CE90197F1F7A2
:1001D0002A95D1F700009F918F912F91299800E0E7
:1001E0000BB90F910F9305E50BB9289A299A2F9314
:1001F0008F939F9321E08EE39CE90197F1F72A9575
:10020000D1F700009F918F912F91299800E00BB9B1
:100210000F910F9302E50BB9289A299A2F938F9388
:100220009F9321E08EE39CE90197F1F72A95D1F79E
:1002300000009F918F912F91299800E00BB90F91A9
:100240000F9305E40BB9289A299A2F938F939F93C4
:1002500021E08EE39CE90197F1F72A95D1F70000A0
:100260009F918F912F91299800E00BB90F910F93D7
:100270000AE30BB9289A299A2F938F939F9321E031
:100280008EE39CE90197F1F72A95D1F700009F9141
:100290008F912F91299800E00BB90F910F930BE5E7
:1002A0000BB9289A299A2F938F939F9321E08EE37D
:1002B0009CE90197F1F72A95D1F700009F918F9162
:1002C0002F91299800E00BB90F91F3E0FF900F9365
:1002D0000F2D0BB9289A299A2F938F939F9321E082
:1002E0008EE39CE90197F1F72A95D1F700009F91E1
:1002F0008F912F91299800E00BB90F91FA9531F762
:100300000F930DE50BB9289A299A2F938F939F93FA
:1003100021E08EE39CE90197F1F72A95D1F70000DF
:100320009F918F912F91299800E00BB90F912F93F6
:100330008F939F9324E68EE39CE90197F1F72A952A
:10034000D1F700009F918F912F910F9301E00BB98E
:100350002898299A2F938F939F9321E08EE39CE90D
:100360000197F1F72A95D1F700009F918F912F9176
:10037000299800E00BB90F91D03A10F018F499CEFB
:080380002C9897CE2C9A95CE23
:00000001FF
